{"abi":[{"type":"function","name":"account","inputs":[],"outputs":[{"name":"","type":"address","internalType":"contract IAccount"}],"stateMutability":"view"},{"type":"function","name":"batchProcessRequests","inputs":[{"name":"requestIds","type":"uint256[]","internalType":"uint256[]"},{"name":"insertAfterPrices","type":"uint256[]","internalType":"uint256[]"},{"name":"insertAfterOrders","type":"uint256[]","internalType":"uint256[]"}],"outputs":[{"name":"processedCount","type":"uint256","internalType":"uint256"}],"stateMutability":"nonpayable"},{"type":"function","name":"getBestPrice","inputs":[{"name":"tradingPair","type":"bytes32","internalType":"bytes32"},{"name":"isAsk","type":"bool","internalType":"bool"}],"outputs":[{"name":"","type":"uint256","internalType":"uint256"}],"stateMutability":"view"},{"type":"function","name":"getMarketOrderSnapshot","inputs":[{"name":"tradingPair","type":"bytes32","internalType":"bytes32"},{"name":"isAsk","type":"bool","internalType":"bool"},{"name":"depth","type":"uint256","internalType":"uint256"}],"outputs":[{"name":"orderIds","type":"uint256[]","internalType":"uint256[]"},{"name":"amounts","type":"uint256[]","internalType":"uint256[]"}],"stateMutability":"view"},{"type":"function","name":"getOrderBookSnapshot","inputs":[{"name":"tradingPair","type":"bytes32","internalType":"bytes32"},{"name":"isAsk","type":"bool","internalType":"bool"},{"name":"depth","type":"uint256","internalType":"uint256"}],"outputs":[{"name":"prices","type":"uint256[]","internalType":"uint256[]"},{"name":"volumes","type":"uint256[]","internalType":"uint256[]"}],"stateMutability":"view"},{"type":"function","name":"getPriceLevel","inputs":[{"name":"price","type":"uint256","internalType":"uint256"},{"name":"isAsk","type":"bool","internalType":"bool"}],"outputs":[{"name":"","type":"tuple","internalType":"struct OrderBook.PriceLevel","components":[{"name":"price","type":"uint256","internalType":"uint256"},{"name":"totalVolume","type":"uint256","internalType":"uint256"},{"name":"headOrderId","type":"uint256","internalType":"uint256"},{"name":"tailOrderId","type":"uint256","internalType":"uint256"},{"name":"nextPrice","type":"uint256","internalType":"uint256"},{"name":"prevPrice","type":"uint256","internalType":"uint256"}]}],"stateMutability":"view"},{"type":"function","name":"insertMarketOrder","inputs":[{"name":"sequencerOrderId","type":"uint256","internalType":"uint256"}],"outputs":[],"stateMutability":"nonpayable"},{"type":"function","name":"insertOrder","inputs":[{"name":"sequencerOrderId","type":"uint256","internalType":"uint256"},{"name":"insertAfterPrice","type":"uint256","internalType":"uint256"},{"name":"insertAfterOrder","type":"uint256","internalType":"uint256"}],"outputs":[],"stateMutability":"nonpayable"},{"type":"function","name":"matchMarketOrders","inputs":[{"name":"tradingPair","type":"bytes32","internalType":"bytes32"},{"name":"maxIterations","type":"uint256","internalType":"uint256"}],"outputs":[{"name":"totalTrades","type":"uint256","internalType":"uint256"}],"stateMutability":"nonpayable"},{"type":"function","name":"matchOrders","inputs":[{"name":"tradingPair","type":"bytes32","internalType":"bytes32"},{"name":"maxIterations","type":"uint256","internalType":"uint256"}],"outputs":[{"name":"totalTrades","type":"uint256","internalType":"uint256"}],"stateMutability":"nonpayable"},{"type":"function","name":"orderBooks","inputs":[{"name":"","type":"bytes32","internalType":"bytes32"}],"outputs":[{"name":"askHead","type":"uint256","internalType":"uint256"},{"name":"askTail","type":"uint256","internalType":"uint256"},{"name":"bidHead","type":"uint256","internalType":"uint256"},{"name":"bidTail","type":"uint256","internalType":"uint256"},{"name":"marketAskHead","type":"uint256","internalType":"uint256"},{"name":"marketAskTail","type":"uint256","internalType":"uint256"},{"name":"marketBidHead","type":"uint256","internalType":"uint256"},{"name":"marketBidTail","type":"uint256","internalType":"uint256"}],"stateMutability":"view"},{"type":"function","name":"orderTradingPairs","inputs":[{"name":"","type":"uint256","internalType":"uint256"}],"outputs":[{"name":"","type":"bytes32","internalType":"bytes32"}],"stateMutability":"view"},{"type":"function","name":"orders","inputs":[{"name":"","type":"uint256","internalType":"uint256"}],"outputs":[{"name":"id","type":"uint256","internalType":"uint256"},{"name":"trader","type":"address","internalType":"address"},{"name":"amount","type":"uint256","internalType":"uint256"},{"name":"filledAmount","type":"uint256","internalType":"uint256"},{"name":"isMarketOrder","type":"bool","internalType":"bool"},{"name":"priceLevel","type":"uint256","internalType":"uint256"},{"name":"nextOrderId","type":"uint256","internalType":"uint256"},{"name":"prevOrderId","type":"uint256","internalType":"uint256"}],"stateMutability":"view"},{"type":"function","name":"priceLevels","inputs":[{"name":"","type":"uint256","internalType":"uint256"}],"outputs":[{"name":"price","type":"uint256","internalType":"uint256"},{"name":"totalVolume","type":"uint256","internalType":"uint256"},{"name":"headOrderId","type":"uint256","internalType":"uint256"},{"name":"tailOrderId","type":"uint256","internalType":"uint256"},{"name":"nextPrice","type":"uint256","internalType":"uint256"},{"name":"prevPrice","type":"uint256","internalType":"uint256"}],"stateMutability":"view"},{"type":"function","name":"processRemoveOrder","inputs":[{"name":"requestId","type":"uint256","internalType":"uint256"}],"outputs":[],"stateMutability":"nonpayable"},{"type":"function","name":"sequencer","inputs":[],"outputs":[{"name":"","type":"address","internalType":"contract ISequencer"}],"stateMutability":"view"},{"type":"function","name":"setAccount","inputs":[{"name":"_account","type":"address","internalType":"address"}],"outputs":[],"stateMutability":"nonpayable"},{"type":"function","name":"setSequencer","inputs":[{"name":"_sequencer","type":"address","internalType":"address"}],"outputs":[],"stateMutability":"nonpayable"},{"type":"event","name":"AccountSet","inputs":[{"name":"account","type":"address","indexed":true,"internalType":"address"}],"anonymous":false},{"type":"event","name":"MarketOrderInserted","inputs":[{"name":"tradingPair","type":"bytes32","indexed":true,"internalType":"bytes32"},{"name":"orderId","type":"uint256","indexed":true,"internalType":"uint256"},{"name":"isAsk","type":"bool","indexed":false,"internalType":"bool"},{"name":"amount","type":"uint256","indexed":false,"internalType":"uint256"}],"anonymous":false},{"type":"event","name":"MarketOrderRemoved","inputs":[{"name":"tradingPair","type":"bytes32","indexed":true,"internalType":"bytes32"},{"name":"orderId","type":"uint256","indexed":true,"internalType":"uint256"}],"anonymous":false},{"type":"event","name":"OrderFilled","inputs":[{"name":"tradingPair","type":"bytes32","indexed":true,"internalType":"bytes32"},{"name":"orderId","type":"uint256","indexed":true,"internalType":"uint256"},{"name":"filledAmount","type":"uint256","indexed":false,"internalType":"uint256"},{"name":"isFullyFilled","type":"bool","indexed":false,"internalType":"bool"}],"anonymous":false},{"type":"event","name":"OrderInserted","inputs":[{"name":"tradingPair","type":"bytes32","indexed":true,"internalType":"bytes32"},{"name":"orderId","type":"uint256","indexed":true,"internalType":"uint256"},{"name":"isAsk","type":"bool","indexed":false,"internalType":"bool"},{"name":"price","type":"uint256","indexed":false,"internalType":"uint256"},{"name":"amount","type":"uint256","indexed":false,"internalType":"uint256"}],"anonymous":false},{"type":"event","name":"OrderRemoved","inputs":[{"name":"tradingPair","type":"bytes32","indexed":true,"internalType":"bytes32"},{"name":"orderId","type":"uint256","indexed":true,"internalType":"uint256"}],"anonymous":false},{"type":"event","name":"PriceLevelCreated","inputs":[{"name":"tradingPair","type":"bytes32","indexed":true,"internalType":"bytes32"},{"name":"price","type":"uint256","indexed":true,"internalType":"uint256"},{"name":"isAsk","type":"bool","indexed":false,"internalType":"bool"}],"anonymous":false},{"type":"event","name":"PriceLevelRemoved","inputs":[{"name":"tradingPair","type":"bytes32","indexed":true,"internalType":"bytes32"},{"name":"price","type":"uint256","indexed":true,"internalType":"uint256"}],"anonymous":false},{"type":"event","name":"SequencerSet","inputs":[{"name":"sequencer","type":"address","indexed":true,"internalType":"address"}],"anonymous":false},{"type":"event","name":"Trade","inputs":[{"name":"tradingPair","type":"bytes32","indexed":true,"internalType":"bytes32"},{"name":"buyOrderId","type":"uint256","indexed":true,"internalType":"uint256"},{"name":"sellOrderId","type":"uint256","indexed":true,"internalType":"uint256"},{"name":"buyer","type":"address","indexed":false,"internalType":"address"},{"name":"seller","type":"address","indexed":false,"internalType":"address"},{"name":"price","type":"uint256","indexed":false,"internalType":"uint256"},{"name":"amount","type":"uint256","indexed":false,"internalType":"uint256"}],"anonymous":false}],"bytecode":{"object":"0x6080806040523461001657613189908161001c8239f35b600080fdfe60a080604052600436101561001357600080fd5b600060805260003560e01c9081632547fa3e14611a3f5750806329f6d57c1461194e578063544ec1d91461170f578063547f2f6d1461162a5780635c1bba38146115ff5780635dab2420146115d457806366091c781461155a578063860655b414610cd75780639bf0fab714610ca95780639ef8b51314610bf6578063a85c38ef14610b6e578063aba95a0d146108a4578063b3bc2dfe14610782578063c95cfbf61461069f578063e122aef11461023d578063e12a385f14610183578063ebfb4f4a1461011e5763f8084301146100ea57600080fd5b3461011857602036600319011261011857600435608051526005602052602060406080512054604051908152f35b60805180fd5b346101185760203660031901126101185760043560805152600160205260c060406080512080549060018101549060028101546003820154906005600484015493015493604051958652602086015260408501526060840152608083015260a0820152f35b346101185761019136611b8c565b9061019b82612720565b906101a583612720565b936080515260805190602091808352604081208260001461023457545b8582108061022b575b1561021857826101da91611c73565b60805152610212600460018086526040608051209081546101fb868a612752565b52810154610209858b612752565b52015491611edb565b906101c2565b60405180610227898883611be3565b0390f35b508015156101cb565b600201546101c2565b34610118576020806003193601126101185760043560018060a01b039081600354166040516324cc882b60e21b81528260048201528481602481855afa9081156103ec576080519161066a575b5015610613579260e06024946040519586809263c4166e01851b82528660048301525afa9283156103ec57608051809581956105d2575b5060ff816102d0600193611de7565b160361058d578360805152600282526040608051206102f181541515611e07565b60018101610306838083541698168814611e4a565b8560805152600584526080519160408320549760ff600483015416600014610485575061033f9192506003600282015491015490611e88565b806103f9575b5050610351848661282e565b836080515260058252600260805192600060408520555261037460408320611eab565b6003541690813b156103e957506040519163b664a9f160e01b835260048301528160248160805180945af180156103ec576103d6575b50608051917f5b16d402c00b485ecfe0475e0ed052d6af9085d98354fd914b4aa0086172f5738380a380f35b6103df90611c0b565b60805180156103aa575b80fd5b6040513d608051823e3d90fd5b82806004541692541690823b1561011857604051631dee08f360e01b81526080516001600160a01b039093166004820152602481018990526001604482015260006064820152608481019190915260a48101879052918290818060c481010391608051905af180156103ec57610470575b80610345565b61047990611c0b565b608051801561046a5780fd5b915087600582015493526104a183604060805180895220611f10565b916104ac8385611c73565b60805152600186526104ce604060805120926003600282015491015490611e88565b9081610505575b50506002906104e583898661257d565b0154156104f4575b5050610351565b6104fe9187612613565b85806104ed565b8560045416835490803b1561011857604051631dee08f360e01b8152608080516001600160a01b03959095166004830152602482018e905287151560448301526064820193909352608481019490945260a484018b90529051839160c49183915af180156103ec57610578575b806104d5565b61058190611c0b565b60805180156105725780fd5b60405162461bcd60e51b815260048101839052601a60248201527f4e6f7420612072656d6f7665206f7264657220726571756573740000000000006044820152606490fd5b6001965060ff95506105fc915060e03d60e01161060c575b6105f48183611c51565b810190611d94565b50929950919792506102c1915050565b503d6105ea565b60405162461bcd60e51b815260048101859052602960248201527f52657175657374206973206e6f742061742068656164206f662073657175656e60448201526863657220717565756560b81b6064820152608490fd5b90508481813d8311610698575b6106818183611c51565b810103126101185761069290611c85565b8561028a565b503d610677565b34610118576040366003190112610118576106fc6106bb611b7d565b6040516106c781611c35565b6080518152608051602082015260805160408201526080516060820152608051608082015260a0608051910152600435611c73565b60805152600160205260c060406080512060405161071981611c35565b8154918282526001810154602083019081526002820154604084019081526003830154916060850192835260a0600560048601549560808801968752015495019485526040519586525160208601525160408501525160608401525160808301525160a0820152f35b346101185761079036611b36565b60008281526020818152604082209093600682019160048101845b8681106107bd575b8786604051908152f35b600085548015158061089a575b61085f575b50825480151580610852575b6107f9575b50156107f4576107ef90611edb565b6107ab565b6107b3565b600290600160ff1b828701541760005260018b526040600020918201549182610824575b50506107e0565b610831935054918761296e565b8061083e5789808061081d565b509461084c6107ef91611edb565b95611edb565b50600285015415156107db565b845460005260018a52604060002060028101549081610880575b50506107cf565b61088d935054918761296e565b8061083e57898080610879565b50845415156107ca565b346101185760603660031901126101185760035460405163536d6c2560e11b8152600480359082018190526024926001600160a01b0392602091841682828781845afa80156103ec57869260805191610b2d575b509061090560c092611c92565b604051968780926349d1082360e11b82528760048301525afa9081156103ec5760805194858694879588998996610ae7575b5060ff16610ab0578815610a6d5760058860406109c194838a958c8f61096c906109628e1515611d48565b8c35908a89611f47565b968188926080515260028452608051958787209182558c6001830191166001600160601b0360a01b8254161790558d60028201558560038201556004810160ff198154169055015552205587604435916123fe565b60035416803b1561011857604051809263b664a9f160e01b82528660048301528160805180945af180156103ec57610a58575b50610a51948492610a3f7f4c2c49682ddaaa60e06832f19c4c583e28674d1c8106d0ef65582092ecc4b910936040519384938460409194939260608201951515825260208201520152565b0390a3610a4b81612897565b50613003565b5060805180f35b610a6190611c0b565b60805180156109f45780fd5b606490601c856040519262461bcd60e51b845260048401528201527f5072696365206d7573742062652067726561746572207468616e2030000000006044820152fd5b6064906011856040519262461bcd60e51b84526004840152820152702737ba1030903634b6b4ba1037b93232b960791b6044820152fd5b93985050945050610b1491965060ff925060c03d8111610b26575b610b0c8183611c51565b810190611d02565b90999498919690959193929091610937565b503d610b02565b80929350848092503d8311610b67575b610b478183611c51565b81010312610118578591610905610b5f60c093611c85565b9192506108f8565b503d610b3d565b346101185760203660031901126101185760043560805152600260205261010060406080512080549060018060a01b03600182015416906002810154600382015460ff6004840154169060058401549260076006860154950154956040519788526020880152604087015260608601521515608085015260a084015260c083015260e0820152f35b3461011857610c0436611b8c565b90610c0e82612720565b90610c1883612720565b93608051526080516020918183526040822090600014610ca057600401545b84821080610c97575b15610c885760805152610c8260066002808552610c78604060805120918254610c69878a612752565b52820154600383015490611e88565b610209858a612752565b90610c37565b60405180610227888783611be3565b50801515610c40565b60060154610c37565b34610118576040366003190112610118576020610ccf610cc7611b7d565b600435612766565b604051908152f35b346101185760603660031901126101185767ffffffffffffffff60043581811161011857610d09903690600401611b4c565b9160243581811161011857610d22903690600401611b4c565b909160443590811161011857610d3c903690600401611b4c565b909290851561151f57606486116114e357828614806114da575b1561149d57939291906080519485965b808810610d79575b602087604051908152f35b909192939495610d8a888389611eea565b3560018060a01b03600354166040516324cc882b60e21b8152826004820152602081602481855afa9081156103ec5760805191611463575b50156114365760405163c4166e0160e01b81526004810183905260e081602481855afa9081156103ec576080519161143e575b50610dff81611de7565b60ff8116806110f157505050610e16898787611eea565b35906024610e258b878b611eea565b359260e060018060a01b03600354166040519384809263c4166e01851b82528760048301525afa80156103ec57608051948586938794889689956110b9575b5087929160ff82610e758c94611de7565b16610fab5791816040610e90610eed97958b8b809997611f47565b92846080515260029081602052896080519284842092888455600184019060018060a01b03166001600160601b0360a01b8254161790558201558160038201556004810160ff1981541690558460058092015560205220556123fe565b6003546001600160a01b0316803b15610118576040519063b664a9f160e01b82528560048301528160248160805180945af180156103ec57610f96575b5092847f4c2c49682ddaaa60e06832f19c4c583e28674d1c8106d0ef65582092ecc4b910610f7e94610f849794610a3f610f8a9a986040519384938460409194939260608201951515825260208201520152565b50611edb565b97611edb565b96959493929190610d66565b610f9f90611c0b565b6080518015610f2a5780fd5b509395509060409250608051526002806020526080519186848420928984556001928385019060018060a01b03166001600160601b0360a01b825416179055830155826003830155600482019060ff198254161790558160058092015560205220556110188382866127ab565b6003546001600160a01b0316803b15610118576040519063b664a9f160e01b82528460048301528160248160805180945af180156103ec576110a4575b5092610f8a9492817fd66cf8695f534f1e048e721c602a5d40c394537b973ba857dcebba9cb506820d610f7e94610f8497610a3f60405192839283602090939291936040810194151581520152565b6110ad90611c0b565b60805180156110555780fd5b925050925060ff96506110df91945085935060e03d60e01161060c576105f48183611c51565b949a5097909693959094509192610e64565b6110fc600192611de7565b036114365760e06024916040519283809263c4166e01851b82528660048301525afa9182156103ec5760805191829361140b575b508260805152600260205260406080512061114d81541515611e07565b60018101546001600160a01b039081169361116a91168414611e4a565b8360805152600560205260805160408120549360ff6004840154166000146112fa5750506111a16002820154600383015490611e88565b80611260575b50506111b3838361282e565b826080515260056020526080516000604082205560026020526111d860408220611eab565b6003546001600160a01b031690813b156103e957506040519163b664a9f160e01b835260048301528160248160805180945af180156103ec5761124b575b5091610f8491610f8a937f5b16d402c00b485ecfe0475e0ed052d6af9085d98354fd914b4aa0086172f57360805180a3611edb565b61125490611c0b565b60805180156112165780fd5b600454600192909201546001600160a01b03928316921690823b1561011857604051631dee08f360e01b81526080516001600160a01b039093166004820152602481018690526001604482015260006064820152608481019190915260a48101869052918290818060c481010391608051905af180156103ec576112e5575b806111a7565b6112ee90611c0b565b60805180156112df5780fd5b909184600582015493526113178360406080518060205220611f10565b916113228385611c73565b608051526001602052611345604060805120926003600282015491015490611e88565b908161137c575b505060029061135c83888661257d565b01541561136b575b50506111b3565b6113759184612613565b8b80611364565b6004548354906001600160a01b0316803b1561011857604051631dee08f360e01b8152608080516001600160a01b03959095166004830152602482018b905287151560448301526064820193909352608481019490945260a484018a90529051839160c49183915af180156103ec576113f6575b8061134c565b6113ff90611c0b565b60805180156113f05780fd5b909250611427915060e03d60e01161060c576105f48183611c51565b5094505050905090918b611130565b505095610d6e565b611457915060e03d60e01161060c576105f48183611c51565b5050505050508b610df5565b90506020813d602011611495575b8161147e60209383611c51565b810103126101185761148f90611c85565b8b610dc2565b3d9150611471565b60405162461bcd60e51b8152602060048201526015602482015274082e4e4c2f240d8cadccee8d040dad2e6dac2e8c6d605b1b6044820152606490fd5b50808614610d56565b60405162461bcd60e51b815260206004820152601460248201527342617463682073697a6520746f6f206c6172676560601b6044820152606490fd5b60405162461bcd60e51b8152602060048201526013602482015272456d707479207265717565737420617272617960681b6044820152606490fd5b34610118576020366003190112610118576004356080515261010060406080518060205220805490600181015490600281015460038201546004830154906005840154926007600686015495015495604051978852602088015260408701526060860152608085015260a084015260c083015260e0820152f35b3461011857608051806003193601126103e9576004546040516001600160a01b039091168152602090f35b3461011857608051806003193601126103e9576003546040516001600160a01b039091168152602090f35b346101185761163836611b36565b816000526020916000835260406000209160009260009260028083015b848610611667575b8787604051908152f35b909192939495815485549080158015611707575b6116ff57600160ff1b1760005260018952604060002090600052604060002081549181548093106116ee578501549085015490801580156116f7575b6116ee57906116c792918761296e565b156116e8576116d86116de91611edb565b96611edb565b9493929190611655565b9561165d565b5050509561165d565b5081156116b7565b50509561165d565b50811561167b565b34610118576020806003193601126101185760035460405163536d6c2560e11b8152600480359082018190526001600160a01b03928316939290918381602481885afa9081156103ec576080519161190e575b5060249461177160c092611c92565b604051958680926349d1082360e11b82528660048301525afa9081156103ec57608051938485869787956118dc575b5060ff60019116036118a25760058087936040936117bf881515611d48565b886080515260028252608051938491868320908b8255896001830191166001600160601b0360a01b82541617905589600282015582600382015560048101600160ff1982541617905501555220556118188386866127ab565b6003541690813b15610118576040519163b664a9f160e01b83528360048401528260248160805180945af19081156103ec57610a519585937fd66cf8695f534f1e048e721c602a5d40c394537b973ba857dcebba9cb506820d93611893575b5060408051911515825260208201929092529081908101610a3f565b61189c90611c0b565b87611877565b60405162461bcd60e51b81526004810183905260126024820152712737ba10309036b0b935b2ba1037b93232b960711b6044820152606490fd5b9150506119009196506001955060ff935060c03d8111610b2657610b0c8183611c51565b9199949850909590506117a0565b90508381813d8311611947575b6119258183611c51565b810103126101185760249461177161193e60c093611c85565b92505094611762565b503d61191b565b34610118576020366003190112610118576004356001600160a01b038181169182900361011857600454908116611a045781156119bf576001600160a01b0319168117600455608051907f195359283029fbdb9a24519b1ec07caf1677655529bf99dc1634c1e8b28811808280a280f35b60405162461bcd60e51b815260206004820152601760248201527f496e76616c6964206163636f756e7420616464726573730000000000000000006044820152606490fd5b60405162461bcd60e51b81526020600482015260136024820152721058d8dbdd5b9d08185b1c9958591e481cd95d606a1b6044820152606490fd5b34611b31576020366003190112611b31576001600160a01b036004358181169290839003611b3157600354918216611af757508115611ab2576001600160a01b0319168117600355608051907fcbc52e2c91568a62c905823ccb594c6f0edf1d370872648b45fbc6f3ec4a972b8280a280f35b60405162461bcd60e51b815260206004820152601960248201527f496e76616c69642073657175656e6365722061646472657373000000000000006044820152606490fd5b62461bcd60e51b815260206004820152601560248201527414d95c5d595b98d95c88185b1c9958591e481cd95d605a1b6044820152606490fd5b600080fd5b6040906003190112611b31576004359060243590565b9181601f84011215611b315782359167ffffffffffffffff8311611b31576020808501948460051b010111611b3157565b602435908115158203611b3157565b6060906003190112611b3157600435906024358015158103611b31579060443590565b90815180825260208080930193019160005b828110611bcf575050505090565b835185529381019392810192600101611bc1565b9091611bfa611c0893604084526040840190611baf565b916020818403910152611baf565b90565b67ffffffffffffffff8111611c1f57604052565b634e487b7160e01b600052604160045260246000fd5b60c0810190811067ffffffffffffffff821117611c1f57604052565b90601f8019910116810190811067ffffffffffffffff821117611c1f57604052565b9015611c7c5790565b600160ff1b1790565b51908115158203611b3157565b15611c9957565b60405162461bcd60e51b815260206004820152602760248201527f4f72646572206973206e6f742061742068656164206f662073657175656e63656044820152667220717565756560c81b6064820152608490fd5b51906001600160a01b0382168203611b3157565b91908260c0910312611b3157815191611d1d60208201611cee565b91604082015160ff81168103611b315791611d3a60608201611c85565b9160a0608083015192015190565b15611d4f57565b60405162461bcd60e51b815260206004820152601d60248201527f416d6f756e74206d7573742062652067726561746572207468616e20300000006044820152606490fd5b908160e0910312611b315780516002811015611b315791602082015191611dbd60408201611cee565b9160608201516002811015611b315791611dd960808201611c85565b9160c060a083015192015190565b60021115611df157565b634e487b7160e01b600052602160045260246000fd5b15611e0e57565b60405162461bcd60e51b815260206004820152601460248201527313dc99195c88191bd95cc81b9bdd08195e1a5cdd60621b6044820152606490fd5b15611e5157565b60405162461bcd60e51b815260206004820152600f60248201526e2737ba1037b93232b91037bbb732b960891b6044820152606490fd5b91908203918211611e9557565b634e487b7160e01b600052601160045260246000fd5b60076000918281558260018201558260028201558260038201558260048201558260058201558260068201550155565b6000198114611e955760010190565b9190811015611efa5760051b0190565b634e487b7160e01b600052603260045260246000fd5b91909154805b611f21575060009150565b828114611f405760009081526001602052604090206004015480611f16565b5060019150565b909392611f548584611c73565b94600095808752600160209381855260409889812080546123e4576003818a8493558286820155826002820155015586815280865289812093815282865289812091801560001461213e57508415612133578354925b83156120fa57611fba8685611c73565b86156120715783548184528289528c8420541061201957899a9b9491938a6005876000805160206131148339815191529b9a999683986004965b82528c5220015501555b831561201057555b519015158152a390565b60020155612006565b8b5162461bcd60e51b8152600481018990526037602482015260008051602061313483398151915260448201527f6520746f6f206869676820666f722061736b20686561640000000000000000006064820152608490fd5b83548184528289528c842054116120a957899a9b9491938a6005876000805160206131148339815191529b9a99968398600496611ff4565b8b5162461bcd60e51b8152600481018990526036602482015260008051602061313483398151915260448201527519481d1bdbc81b1bddc8199bdc88189a59081a19585960521b6064820152608490fd5b88999a9350889250859491508290600080516020613114833981519152979660001461212857820155611ffe565b506003820155611ffe565b600284015492611faa565b61214c868296939596611c73565b8085528b852054156123945784528487528a84209260049081850192835495896000146122a55782549054811061225657866121eb575b50948897948c809e9f989495838a976000805160206131148339815191529e9d96849b5b600582015501555581156121cf5750600594916121c391611c73565b82528752200155612006565b9350501590506121e0570155612006565b600391500155612006565b8e6121f68b89611c73565b8952898c52882054106122095738612183565b508c5162461bcd60e51b81528083018a90526032602482015260008051602061313483398151915260448201527119481a1a59da195c881d1a185b881b995e1d60721b6064820152608490fd5b8e5162461bcd60e51b81528085018c90526035602482015260008051602061313483398151915260448201527465206c6f776572207468616e2070726576696f757360581b6064820152608490fd5b82549054811161234457866122dd575b50948897948c809e9f989495838a976000805160206131148339815191529e9d96849b6121a7565b600160ff1b87178852888b528e882054116122f857386122b5565b508c5162461bcd60e51b81528083018a90526031602482015260008051602061313483398151915260448201527019481b1bddd95c881d1a185b881b995e1d607a1b6064820152608490fd5b8e5162461bcd60e51b81528085018c9052603660248201526000805160206131348339815191526044820152756520686967686572207468616e2070726576696f757360501b6064820152608490fd5b8b5162461bcd60e51b815260048101899052602360248201527f50726576696f7573207072696365206c6576656c20646f6573206e6f742065786044820152621a5cdd60ea1b6064820152608490fd5b5096985050505050505050565b91908201809211611e9557565b919261240a9083611c73565b600090815260209060018252604091828220958483526002825283832095811560001461248257505092600292612470959282600196868a019384549384151560001461247457886007938683525220015560068401555b555b015492019182546123f1565b9055565b505050600389015550612462565b81849395945283832090815415612539576005820154036124e6579285926002959260019760066124709a97018054926007890155826006890155558015156000146124d8576007938791835252200155612464565b505050506003860155612464565b835162461bcd60e51b815260048101869052602660248201527f50726576696f7573206f72646572206e6f7420696e2073616d65207072696365604482015265081b195d995b60d21b6064820152608490fd5b845162461bcd60e51b815260048101879052601d60248201527f50726576696f7573206f7264657220646f6573206e6f742065786973740000006044820152606490fd5b6125f26125906124709394600193611c73565b60009081528260205260408120948152600260205260408120906007820154906006830154821515600014612608578282528060066040842001555b80156125fc578152600260205260409020600701555b6003600282015491015490611e88565b9201918254611e88565b505060038601556125e2565b8060028901556125cc565b90917fe30a888c5e46140708c089cbc93c1ab013e6c22b6b8e5a8edbc41efd416aae1d906000908382528160205260408220906126508187611c73565b9182845260016020526040842091600460058401549301548315156000146126ef5761267c8285611c73565b86528060046040882001555b80156126d7576126989250611c73565b8352600160205260056040842001555b8152600160205280600560408220828155826001820155826002820155826003820155826004820155015580a3565b50156126e657600101556126a8565b600301556126a8565b81156126fd57808355612688565b806002840155612688565b67ffffffffffffffff8111611c1f5760051b60200190565b9061272a82612708565b6127376040519182611c51565b8281528092612748601f1991612708565b0190602036910137565b8051821015611efa5760209160051b010190565b9060009182528160205260408220816000146127a257545b801561279d576040929161279191611c73565b81526001602052205490565b505090565b6002015461277e565b9060009182528160205260408220918381526002602052604081209082600014612823576005840154915b858361280157505050506000146127f4578082600460059301550155565b8082600660079301550155565b60066040848660079652200155015560001461281d5760050155565b60070155565b6007840154916127d6565b6000908152806020526040812091815260026020526040812091600660078401549301549083151560001461288c578383528160066040852001555b81156128825750815260026020526040902060070155565b9050600591500155565b81600482015561286a565b600090808252602082815260409182842090848094600291828501955b600a88106128c8575b505050505050505090565b9091929394959697875487549080158015612966575b61295e57600160ff1b17845260018352848420908452848420815481549290831161294d57870154908701549080158015612956575b61294d579061292492918961296e565b156129475761293561293b91611edb565b98611edb565b969594939291906128b4565b976128bd565b505050976128bd565b508115612914565b5050976128bd565b5081156128de565b9192816000526002602052604060002091846000526040600020908354158015612ffa575b612fef576002840154926129ac60038601548095611e88565b6129bf6002850154600386015490611e88565b80821015612fe75750935b8415612fda57846129da916123f1565b60038601556129ed8460038501546123f1565b600384015560ff60048601541615612fad575b60ff60048401541615612f86575b6004805460018781015490860154928801546001600160a01b039384169493928316929091169060ff16823b15611b3157896000809460c49360405198899687956362751ea760e11b87526004870152602486015260448501528760648501528b6084850152151560a48401525af1908115612f7a577fbfd2a65f78f27f258efcf9bafe7779f0ab681770dfec50e301d5cfae3db900fc9689858a7f6f9bdb4ad2d616fa0bfc4a9587760b6d822db76f6024bbac56ffbde7d639aca76080612b359683998e99612f6b575b50600187810154908d0154604080516001600160a01b039384168152929091166020830152810191909152606081018d9052a4600260038201549101541480612d1d575b60408051888152911515602083015290918291820190565b0390a360026003820154910154149081612b5f575b604080519182529115156020820152a3600190565b846000526002602052604060002060ff600482015416600014612bae5750612b87858561282e565b846000526005602052600060408120556002602052612ba96040600020611eab565b612b4a565b600501548060005260016020526040600020866000526002602052612c2060016125f2604060002060078101546006820154811515600014612d125781600052806006604060002001555b8015612d075760005260026020526007604060002001556003600282015491015490611e88565b905580600052600160205260026040600020015415612c40575b50612b87565b84600052600060205260406000208160005260016020526040600020906004600583015492015490821515600014612cff5782600052816004604060002001555b8115612cf4575060005260016020526005604060002001555b80600052600160205260006005604082208281558260018201558260028201558260038201558260048201550155847fe30a888c5e46140708c089cbc93c1ab013e6c22b6b8e5a8edbc41efd416aae1d600080a338612c3a565b600191500155612c9a565b818155612c81565b5060038601556125e2565b806002880155612bf9565b846000526002602052604060002060ff600482015416600014612de45750600084600052600060205260406000208660005260026020526040600020916006600784015493015491831515600014612dd4578382528260066040842001555b8215612dbb5750806007926040925260026020522001555b846000526005602052600060408120556002602052612db66040600020611eab565b612b1d565b915015612dcb5760050155612d94565b60070155612d94565b9050600090826006820155612d7c565b6005015484600160ff1b82178060005260016020526040600020886000526002602052612e5d60016125f2604060002060078101546006820154811515600014612d125781600052806006604060002001558015612d075760005260026020526007604060002001556003600282015491015490611e88565b905580600052600160205260026040600020015415612e7f575b505050612d94565b7fe30a888c5e46140708c089cbc93c1ab013e6c22b6b8e5a8edbc41efd416aae1d90600090836000526000602052604060002081600052600160205260406000209060046005830154920154821515600014612f5a578490612ee18285611c73565b82528060046040842001555b8015612f4257612efd9250611c73565b8352600160205260056040842001555b8152600160205280600560408220828155826001820155826002820155826003820155826004820155015580a3388481612e77565b5015612f515760010155612f0d565b60030155612f0d565b935060008481956002840155612eed565b612f7490611c0b565b38612ad9565b6040513d6000823e3d90fd5b600583015460005260016020526001604060002001612fa6858254611e88565b9055612a0e565b600160ff1b60058601541760005260016020526001604060002001612fd3858254611e88565b9055612a00565b5050505050505050600090565b9050936129ca565b505050505050600090565b50815415612993565b60008181526020908082526040928382209282938395600682019460048301975b600a8110613039575b50505050505050905090565b81875480151580613109575b6130d1575b508954801515806130c4575b613074575b501561306f5761306a90611edb565b613024565b61302d565b600286810154600160ff1b178552600188528585209081015491908261309c575b505061305b565b6130a9935054918961296e565b806130b657388080613095565b5096610f8461306a91611edb565b5060028601541515613056565b8554845260018752848420600281015490816130ef575b505061304a565b6130fc935054918961296e565b806130b6573880806130e8565b508554151561304556fe8456b03fa6b0b0da3b3b154688f304c640a28acbe3cedfbf91442417591537e4496e76616c696420696e73657274696f6e20706f736974696f6e3a2070726963a26469706673582212205533c9e95dcfcdb55f034df868bec35f2a74c97ff0d1a1512a006bba1cb47df964736f6c63430008140033","linkReferences":{}},"methodIdentifiers":{"account()":"5dab2420","batchProcessRequests(uint256[],uint256[],uint256[])":"860655b4","getBestPrice(bytes32,bool)":"9bf0fab7","getMarketOrderSnapshot(bytes32,bool,uint256)":"9ef8b513","getOrderBookSnapshot(bytes32,bool,uint256)":"e12a385f","getPriceLevel(uint256,bool)":"c95cfbf6","insertMarketOrder(uint256)":"544ec1d9","insertOrder(uint256,uint256,uint256)":"aba95a0d","matchMarketOrders(bytes32,uint256)":"b3bc2dfe","matchOrders(bytes32,uint256)":"547f2f6d","orderBooks(bytes32)":"66091c78","orderTradingPairs(uint256)":"f8084301","orders(uint256)":"a85c38ef","priceLevels(uint256)":"ebfb4f4a","processRemoveOrder(uint256)":"e122aef1","sequencer()":"5c1bba38","setAccount(address)":"29f6d57c","setSequencer(address)":"2547fa3e"},"id":4}